{
  "contractName": "GangMultisig",
  "abi": [
    {
      "constant": true,
      "inputs": [],
      "name": "mintingFinished",
      "outputs": [
        {
          "name": "",
          "type": "bool"
        }
      ],
      "payable": false,
      "stateMutability": "view",
      "type": "function"
    },
    {
      "constant": true,
      "inputs": [],
      "name": "destroyContract",
      "outputs": [
        {
          "name": "confirms",
          "type": "uint8"
        },
        {
          "name": "isExecute",
          "type": "bool"
        },
        {
          "name": "initiator",
          "type": "address"
        }
      ],
      "payable": false,
      "stateMutability": "view",
      "type": "function"
    },
    {
      "constant": false,
      "inputs": [
        {
          "name": "index",
          "type": "uint256"
        }
      ],
      "name": "confirmSetRate",
      "outputs": [],
      "payable": false,
      "stateMutability": "nonpayable",
      "type": "function"
    },
    {
      "constant": false,
      "inputs": [
        {
          "name": "index",
          "type": "uint256"
        }
      ],
      "name": "approveNewMintRequest",
      "outputs": [],
      "payable": false,
      "stateMutability": "nonpayable",
      "type": "function"
    },
    {
      "constant": false,
      "inputs": [
        {
          "name": "index",
          "type": "uint256"
        }
      ],
      "name": "approveNewOwnerRequest",
      "outputs": [],
      "payable": false,
      "stateMutability": "nonpayable",
      "type": "function"
    },
    {
      "constant": false,
      "inputs": [
        {
          "name": "_count",
          "type": "uint256"
        }
      ],
      "name": "setNewOwnersCountToApprove",
      "outputs": [],
      "payable": false,
      "stateMutability": "nonpayable",
      "type": "function"
    },
    {
      "constant": true,
      "inputs": [
        {
          "name": "",
          "type": "uint256"
        }
      ],
      "name": "setNewMint",
      "outputs": [
        {
          "name": "spender",
          "type": "address"
        },
        {
          "name": "value",
          "type": "uint256"
        },
        {
          "name": "confirms",
          "type": "uint8"
        },
        {
          "name": "isExecute",
          "type": "bool"
        },
        {
          "name": "initiator",
          "type": "address"
        }
      ],
      "payable": false,
      "stateMutability": "view",
      "type": "function"
    },
    {
      "constant": true,
      "inputs": [
        {
          "name": "",
          "type": "uint256"
        }
      ],
      "name": "newOwners",
      "outputs": [
        {
          "name": "newOwner",
          "type": "address"
        },
        {
          "name": "confirms",
          "type": "uint8"
        },
        {
          "name": "isExecute",
          "type": "bool"
        },
        {
          "name": "initiator",
          "type": "address"
        }
      ],
      "payable": false,
      "stateMutability": "view",
      "type": "function"
    },
    {
      "constant": true,
      "inputs": [],
      "name": "needApprovesToConfirm",
      "outputs": [
        {
          "name": "",
          "type": "uint256"
        }
      ],
      "payable": false,
      "stateMutability": "view",
      "type": "function"
    },
    {
      "constant": false,
      "inputs": [
        {
          "name": "_spender",
          "type": "address"
        },
        {
          "name": "_value",
          "type": "uint256"
        }
      ],
      "name": "setNewMintRequest",
      "outputs": [],
      "payable": false,
      "stateMutability": "nonpayable",
      "type": "function"
    },
    {
      "constant": false,
      "inputs": [
        {
          "name": "_rateInWei",
          "type": "uint256"
        }
      ],
      "name": "setRateInitial",
      "outputs": [],
      "payable": false,
      "stateMutability": "nonpayable",
      "type": "function"
    },
    {
      "constant": true,
      "inputs": [],
      "name": "crowdsale",
      "outputs": [
        {
          "name": "",
          "type": "address"
        }
      ],
      "payable": false,
      "stateMutability": "view",
      "type": "function"
    },
    {
      "constant": false,
      "inputs": [
        {
          "name": "_removeOwner",
          "type": "address"
        }
      ],
      "name": "removeNewOwnerRequest",
      "outputs": [],
      "payable": false,
      "stateMutability": "nonpayable",
      "type": "function"
    },
    {
      "constant": false,
      "inputs": [
        {
          "name": "index",
          "type": "uint256"
        }
      ],
      "name": "approveRemoveOwnerRequest",
      "outputs": [],
      "payable": false,
      "stateMutability": "nonpayable",
      "type": "function"
    },
    {
      "constant": true,
      "inputs": [
        {
          "name": "",
          "type": "uint256"
        }
      ],
      "name": "setRateConfirmation",
      "outputs": [
        {
          "name": "rate",
          "type": "uint256"
        },
        {
          "name": "confirms",
          "type": "uint8"
        },
        {
          "name": "isExecute",
          "type": "bool"
        },
        {
          "name": "initiator",
          "type": "address"
        }
      ],
      "payable": false,
      "stateMutability": "view",
      "type": "function"
    },
    {
      "constant": false,
      "inputs": [
        {
          "name": "_newOwner",
          "type": "address"
        }
      ],
      "name": "setNewOwnerRequest",
      "outputs": [],
      "payable": false,
      "stateMutability": "nonpayable",
      "type": "function"
    },
    {
      "constant": true,
      "inputs": [],
      "name": "ownersCount",
      "outputs": [
        {
          "name": "",
          "type": "uint256"
        }
      ],
      "payable": false,
      "stateMutability": "view",
      "type": "function"
    },
    {
      "constant": true,
      "inputs": [],
      "name": "finishMintingStruct",
      "outputs": [
        {
          "name": "confirms",
          "type": "uint8"
        },
        {
          "name": "isExecute",
          "type": "bool"
        }
      ],
      "payable": false,
      "stateMutability": "view",
      "type": "function"
    },
    {
      "constant": true,
      "inputs": [
        {
          "name": "",
          "type": "uint256"
        }
      ],
      "name": "removeOwners",
      "outputs": [
        {
          "name": "newOwner",
          "type": "address"
        },
        {
          "name": "confirms",
          "type": "uint8"
        },
        {
          "name": "isExecute",
          "type": "bool"
        },
        {
          "name": "initiator",
          "type": "address"
        }
      ],
      "payable": false,
      "stateMutability": "view",
      "type": "function"
    },
    {
      "constant": false,
      "inputs": [],
      "name": "destroyContractRequest",
      "outputs": [],
      "payable": false,
      "stateMutability": "nonpayable",
      "type": "function"
    },
    {
      "constant": true,
      "inputs": [
        {
          "name": "",
          "type": "uint256"
        }
      ],
      "name": "setNewApproves",
      "outputs": [
        {
          "name": "count",
          "type": "uint256"
        },
        {
          "name": "confirms",
          "type": "uint8"
        },
        {
          "name": "isExecute",
          "type": "bool"
        },
        {
          "name": "initiator",
          "type": "address"
        }
      ],
      "payable": false,
      "stateMutability": "view",
      "type": "function"
    },
    {
      "constant": false,
      "inputs": [
        {
          "name": "index",
          "type": "uint256"
        }
      ],
      "name": "approveNewOwnersCount",
      "outputs": [],
      "payable": false,
      "stateMutability": "nonpayable",
      "type": "function"
    },
    {
      "constant": true,
      "inputs": [],
      "name": "token",
      "outputs": [
        {
          "name": "",
          "type": "address"
        }
      ],
      "payable": false,
      "stateMutability": "view",
      "type": "function"
    },
    {
      "inputs": [
        {
          "name": "_token",
          "type": "address"
        },
        {
          "name": "_crowdsale",
          "type": "address"
        },
        {
          "name": "_needApprovesToConfirm",
          "type": "uint8"
        },
        {
          "name": "_owners",
          "type": "address[]"
        }
      ],
      "payable": false,
      "stateMutability": "nonpayable",
      "type": "constructor"
    },
    {
      "anonymous": false,
      "inputs": [
        {
          "indexed": true,
          "name": "initiator",
          "type": "address"
        },
        {
          "indexed": true,
          "name": "index",
          "type": "uint256"
        },
        {
          "indexed": true,
          "name": "spender",
          "type": "address"
        },
        {
          "indexed": false,
          "name": "value",
          "type": "uint256"
        }
      ],
      "name": "NewMintRequestSetup",
      "type": "event"
    },
    {
      "anonymous": false,
      "inputs": [
        {
          "indexed": true,
          "name": "owner",
          "type": "address"
        },
        {
          "indexed": true,
          "name": "index",
          "type": "uint256"
        },
        {
          "indexed": true,
          "name": "confirms",
          "type": "uint8"
        },
        {
          "indexed": false,
          "name": "isExecute",
          "type": "bool"
        }
      ],
      "name": "NewMintRequestUpdate",
      "type": "event"
    },
    {
      "anonymous": false,
      "inputs": [
        {
          "indexed": true,
          "name": "owner",
          "type": "address"
        },
        {
          "indexed": true,
          "name": "confirms",
          "type": "uint8"
        },
        {
          "indexed": false,
          "name": "isExecute",
          "type": "bool"
        }
      ],
      "name": "FinishMintingRequestUpdate",
      "type": "event"
    },
    {
      "anonymous": false,
      "inputs": [],
      "name": "MintFinished",
      "type": "event"
    },
    {
      "anonymous": false,
      "inputs": [
        {
          "indexed": true,
          "name": "initiator",
          "type": "address"
        },
        {
          "indexed": true,
          "name": "index",
          "type": "uint256"
        },
        {
          "indexed": false,
          "name": "count",
          "type": "uint256"
        }
      ],
      "name": "NewNeedApprovesToConfirmSetup",
      "type": "event"
    },
    {
      "anonymous": false,
      "inputs": [
        {
          "indexed": true,
          "name": "owner",
          "type": "address"
        },
        {
          "indexed": true,
          "name": "index",
          "type": "uint256"
        },
        {
          "indexed": true,
          "name": "confirms",
          "type": "uint8"
        },
        {
          "indexed": false,
          "name": "isExecute",
          "type": "bool"
        }
      ],
      "name": "NewNeedApprovesToConfirmUpdate",
      "type": "event"
    },
    {
      "anonymous": false,
      "inputs": [
        {
          "indexed": true,
          "name": "initiator",
          "type": "address"
        },
        {
          "indexed": true,
          "name": "index",
          "type": "uint256"
        },
        {
          "indexed": false,
          "name": "rate",
          "type": "uint256"
        }
      ],
      "name": "SetNewRateEvent",
      "type": "event"
    },
    {
      "anonymous": false,
      "inputs": [
        {
          "indexed": true,
          "name": "index",
          "type": "uint256"
        },
        {
          "indexed": true,
          "name": "owner",
          "type": "address"
        },
        {
          "indexed": true,
          "name": "confirms",
          "type": "uint8"
        },
        {
          "indexed": false,
          "name": "isExecute",
          "type": "bool"
        }
      ],
      "name": "ApproveSetNewRate",
      "type": "event"
    },
    {
      "anonymous": false,
      "inputs": [
        {
          "indexed": true,
          "name": "initiator",
          "type": "address"
        }
      ],
      "name": "DestroyContractInitial",
      "type": "event"
    },
    {
      "anonymous": false,
      "inputs": [
        {
          "indexed": true,
          "name": "owner",
          "type": "address"
        },
        {
          "indexed": true,
          "name": "confirms",
          "type": "uint8"
        },
        {
          "indexed": false,
          "name": "isExecute",
          "type": "bool"
        }
      ],
      "name": "ApproveDestroyContract",
      "type": "event"
    },
    {
      "anonymous": false,
      "inputs": [
        {
          "indexed": true,
          "name": "initiator",
          "type": "address"
        },
        {
          "indexed": true,
          "name": "index",
          "type": "uint256"
        },
        {
          "indexed": false,
          "name": "newOwner",
          "type": "address"
        }
      ],
      "name": "NewOwnerRequestSetup",
      "type": "event"
    },
    {
      "anonymous": false,
      "inputs": [
        {
          "indexed": true,
          "name": "index",
          "type": "uint256"
        },
        {
          "indexed": true,
          "name": "owner",
          "type": "address"
        },
        {
          "indexed": true,
          "name": "confirms",
          "type": "uint8"
        },
        {
          "indexed": false,
          "name": "isExecute",
          "type": "bool"
        }
      ],
      "name": "NewOwnerRequestUpdate",
      "type": "event"
    },
    {
      "anonymous": false,
      "inputs": [
        {
          "indexed": true,
          "name": "initiator",
          "type": "address"
        },
        {
          "indexed": true,
          "name": "index",
          "type": "uint256"
        },
        {
          "indexed": false,
          "name": "newOwner",
          "type": "address"
        }
      ],
      "name": "RemoveOwnerRequestSetup",
      "type": "event"
    },
    {
      "anonymous": false,
      "inputs": [
        {
          "indexed": true,
          "name": "index",
          "type": "uint256"
        },
        {
          "indexed": true,
          "name": "owner",
          "type": "address"
        },
        {
          "indexed": true,
          "name": "confirms",
          "type": "uint8"
        },
        {
          "indexed": false,
          "name": "isExecute",
          "type": "bool"
        }
      ],
      "name": "RemoveOwnerRequestUpdate",
      "type": "event"
    },
    {
      "constant": false,
      "inputs": [],
      "name": "finishMinting",
      "outputs": [],
      "payable": false,
      "stateMutability": "nonpayable",
      "type": "function"
    }
  ],
  "bytecode": "0x60806040526000600860006101000a81548160ff0219169083151502179055503480156200002c57600080fd5b50604051620035f2380380620035f28339810180604052810190808051906020019092919080519060200190929190805190602001909291908051820192919050505060018260ff1611801562000087575080518260ff1610155b15156200009357600080fd5b836000806101000a81548173ffffffffffffffffffffffffffffffffffffffff021916908373ffffffffffffffffffffffffffffffffffffffff16021790555082600160006101000a81548173ffffffffffffffffffffffffffffffffffffffff021916908373ffffffffffffffffffffffffffffffffffffffff1602179055506200012e81620002f7640100000000026401000000009004565b8160ff166004819055506000809054906101000a900473ffffffffffffffffffffffffffffffffffffffff1673ffffffffffffffffffffffffffffffffffffffff1663c72a99c0306040518263ffffffff167c0100000000000000000000000000000000000000000000000000000000028152600401808273ffffffffffffffffffffffffffffffffffffffff1673ffffffffffffffffffffffffffffffffffffffff168152602001915050600060405180830381600087803b158015620001f557600080fd5b505af11580156200020a573d6000803e3d6000fd5b50505050600160009054906101000a900473ffffffffffffffffffffffffffffffffffffffff1673ffffffffffffffffffffffffffffffffffffffff1663c72a99c0306040518263ffffffff167c0100000000000000000000000000000000000000000000000000000000028152600401808273ffffffffffffffffffffffffffffffffffffffff1673ffffffffffffffffffffffffffffffffffffffff168152602001915050600060405180830381600087803b158015620002cc57600080fd5b505af1158015620002e1573d6000803e3d6000fd5b5050505080516003819055505050505062000389565b60008090505b8151811015620003855760016002600084848151811015156200031c57fe5b9060200190602002015173ffffffffffffffffffffffffffffffffffffffff1673ffffffffffffffffffffffffffffffffffffffff16815260200190815260200160002060006101000a81548160ff0219169083151502179055508080600101915050620002fd565b5050565b61325980620003996000396000f30060806040526004361061013e576000357c0100000000000000000000000000000000000000000000000000000000900463ffffffff16806305d2035b14610143578063092a5cce146101725780630a18097b146101e15780633cbb70df1461020e5780634524c9a81461023b5780634b1325ea146102685780634d99306f146102955780636729a41e14610354578063739ab3611461040c5780637d64bcb41461043757806384a6469a1461044e5780638b9218cd1461049b5780639c1e03a0146104c85780639c7bd1571461051f578063a8b40e4e14610562578063ab078d0b1461058f578063ac7bd3b01461061b578063b94885461461065e578063bb7dd72d14610689578063d030db6a146106c5578063dbbd383e1461077d578063e1a2878c14610794578063f12167fe14610820578063fc0c546a1461084d575b600080fd5b34801561014f57600080fd5b506101586108a4565b604051808215151515815260200191505060405180910390f35b34801561017e57600080fd5b506101876108b7565b604051808460ff1660ff168152602001831515151581526020018273ffffffffffffffffffffffffffffffffffffffff1673ffffffffffffffffffffffffffffffffffffffff168152602001935050505060405180910390f35b3480156101ed57600080fd5b5061020c60048036038101908080359060200190929190505050610909565b005b34801561021a57600080fd5b5061023960048036038101908080359060200190929190505050610c90565b005b34801561024757600080fd5b50610266600480360381019080803590602001909291905050506110c1565b005b34801561027457600080fd5b5061029360048036038101908080359060200190929190505050611460565b005b3480156102a157600080fd5b506102c0600480360381019080803590602001909291905050506116a0565b604051808673ffffffffffffffffffffffffffffffffffffffff1673ffffffffffffffffffffffffffffffffffffffff1681526020018581526020018460ff1660ff168152602001831515151581526020018273ffffffffffffffffffffffffffffffffffffffff1673ffffffffffffffffffffffffffffffffffffffff1681526020019550505050505060405180910390f35b34801561036057600080fd5b5061037f6004803603810190808035906020019092919050505061173f565b604051808573ffffffffffffffffffffffffffffffffffffffff1673ffffffffffffffffffffffffffffffffffffffff1681526020018460ff1660ff168152602001831515151581526020018273ffffffffffffffffffffffffffffffffffffffff1673ffffffffffffffffffffffffffffffffffffffff16815260200194505050505060405180910390f35b34801561041857600080fd5b506104216117d8565b6040518082815260200191505060405180910390f35b34801561044357600080fd5b5061044c6117de565b005b34801561045a57600080fd5b50610499600480360381019080803573ffffffffffffffffffffffffffffffffffffffff16906020019092919080359060200190929190505050611a96565b005b3480156104a757600080fd5b506104c660048036038101908080359060200190929190505050611d42565b005b3480156104d457600080fd5b506104dd611f73565b604051808273ffffffffffffffffffffffffffffffffffffffff1673ffffffffffffffffffffffffffffffffffffffff16815260200191505060405180910390f35b34801561052b57600080fd5b50610560600480360381019080803573ffffffffffffffffffffffffffffffffffffffff169060200190929190505050611f99565b005b34801561056e57600080fd5b5061058d60048036038101908080359060200190929190505050612249565b005b34801561059b57600080fd5b506105ba6004803603810190808035906020019092919050505061260d565b604051808581526020018460ff1660ff168152602001831515151581526020018273ffffffffffffffffffffffffffffffffffffffff1673ffffffffffffffffffffffffffffffffffffffff16815260200194505050505060405180910390f35b34801561062757600080fd5b5061065c600480360381019080803573ffffffffffffffffffffffffffffffffffffffff169060200190929190505050612686565b005b34801561066a57600080fd5b50610673612936565b6040518082815260200191505060405180910390f35b34801561069557600080fd5b5061069e61293c565b604051808360ff1660ff168152602001821515151581526020019250505060405180910390f35b3480156106d157600080fd5b506106f060048036038101908080359060200190929190505050612968565b604051808573ffffffffffffffffffffffffffffffffffffffff1673ffffffffffffffffffffffffffffffffffffffff1681526020018460ff1660ff168152602001831515151581526020018273ffffffffffffffffffffffffffffffffffffffff1673ffffffffffffffffffffffffffffffffffffffff16815260200194505050505060405180910390f35b34801561078957600080fd5b50610792612a01565b005b3480156107a057600080fd5b506107bf60048036038101908080359060200190929190505050612e42565b604051808581526020018460ff1660ff168152602001831515151581526020018273ffffffffffffffffffffffffffffffffffffffff1673ffffffffffffffffffffffffffffffffffffffff16815260200194505050505060405180910390f35b34801561082c57600080fd5b5061084b60048036038101908080359060200190929190505050612ebb565b005b34801561085957600080fd5b50610862613208565b604051808273ffffffffffffffffffffffffffffffffffffffff1673ffffffffffffffffffffffffffffffffffffffff16815260200191505060405180910390f35b600860009054906101000a900460ff1681565b600b8060000160009054906101000a900460ff16908060000160019054906101000a900460ff16908060000160029054906101000a900473ffffffffffffffffffffffffffffffffffffffff16905083565b600260003373ffffffffffffffffffffffffffffffffffffffff1673ffffffffffffffffffffffffffffffffffffffff16815260200190815260200160002060009054906101000a900460ff16151561096157600080fd5b600a8181548110151561097057fe5b906000526020600020906003020160020160003373ffffffffffffffffffffffffffffffffffffffff1673ffffffffffffffffffffffffffffffffffffffff16815260200190815260200160002060009054906101000a900460ff161515156109d857600080fd5b600a818154811015156109e757fe5b9060005260206000209060030201600101600081819054906101000a900460ff168092919060010191906101000a81548160ff021916908360ff160217905550506001600a82815481101515610a3957fe5b906000526020600020906003020160020160003373ffffffffffffffffffffffffffffffffffffffff1673ffffffffffffffffffffffffffffffffffffffff16815260200190815260200160002060006101000a81548160ff021916908315150217905550600454600a82815481101515610ab057fe5b906000526020600020906003020160010160009054906101000a900460ff1660ff16101515610bdc57600160009054906101000a900473ffffffffffffffffffffffffffffffffffffffff1673ffffffffffffffffffffffffffffffffffffffff16632d483bec600a83815481101515610b2657fe5b9060005260206000209060030201600001546040518263ffffffff167c010000000000000000000000000000000000000000000000000000000002815260040180828152602001915050600060405180830381600087803b158015610b8a57600080fd5b505af1158015610b9e573d6000803e3d6000fd5b505050506001600a82815481101515610bb357fe5b906000526020600020906003020160010160016101000a81548160ff0219169083151502179055505b600a81815481101515610beb57fe5b906000526020600020906003020160010160009054906101000a900460ff1660ff163373ffffffffffffffffffffffffffffffffffffffff16827f460c460d9245c84075e7cabaa0942fc4f17890a791d0b5c219dd25910ba1065a600a85815481101515610c5557fe5b906000526020600020906003020160010160019054906101000a900460ff16604051808215151515815260200191505060405180910390a450565b600260003373ffffffffffffffffffffffffffffffffffffffff1673ffffffffffffffffffffffffffffffffffffffff16815260200190815260200160002060009054906101000a900460ff161515610ce857600080fd5b600581815481101515610cf757fe5b906000526020600020906004020160030160003373ffffffffffffffffffffffffffffffffffffffff1673ffffffffffffffffffffffffffffffffffffffff16815260200190815260200160002060009054906101000a900460ff16158015610d8b5750600581815481101515610d6a57fe5b906000526020600020906004020160020160019054906101000a900460ff16155b1515610d9657600080fd5b600581815481101515610da557fe5b9060005260206000209060040201600201600081819054906101000a900460ff168092919060010191906101000a81548160ff021916908360ff160217905550506001600582815481101515610df757fe5b906000526020600020906004020160030160003373ffffffffffffffffffffffffffffffffffffffff1673ffffffffffffffffffffffffffffffffffffffff16815260200190815260200160002060006101000a81548160ff021916908315150217905550600454600582815481101515610e6e57fe5b906000526020600020906004020160020160009054906101000a900460ff1660ff1610151561100d576001600582815481101515610ea857fe5b906000526020600020906004020160020160016101000a81548160ff0219169083151502179055506000809054906101000a900473ffffffffffffffffffffffffffffffffffffffff1673ffffffffffffffffffffffffffffffffffffffff166340c10f19600583815481101515610f1c57fe5b906000526020600020906004020160000160009054906101000a900473ffffffffffffffffffffffffffffffffffffffff16600584815481101515610f5d57fe5b9060005260206000209060040201600101546040518363ffffffff167c0100000000000000000000000000000000000000000000000000000000028152600401808373ffffffffffffffffffffffffffffffffffffffff1673ffffffffffffffffffffffffffffffffffffffff16815260200182815260200192505050600060405180830381600087803b158015610ff457600080fd5b505af1158015611008573d6000803e3d6000fd5b505050505b60058181548110151561101c57fe5b906000526020600020906004020160020160009054906101000a900460ff1660ff16813373ffffffffffffffffffffffffffffffffffffffff167fa25ff74d1c6f486771b584aafc9b6c8926760a2bdb7086e3eed07ae90aa1a64160058581548110151561108657fe5b906000526020600020906004020160020160019054906101000a900460ff16604051808215151515815260200191505060405180910390a450565b600260003373ffffffffffffffffffffffffffffffffffffffff1673ffffffffffffffffffffffffffffffffffffffff16815260200190815260200160002060009054906101000a900460ff16151561111957600080fd5b600d8181548110151561112857fe5b906000526020600020906003020160020160003373ffffffffffffffffffffffffffffffffffffffff1673ffffffffffffffffffffffffffffffffffffffff16815260200190815260200160002060009054906101000a900460ff161580156111bc5750600d8181548110151561119b57fe5b906000526020600020906003020160000160159054906101000a900460ff16155b15156111c757600080fd5b600d818154811015156111d657fe5b9060005260206000209060030201600001601481819054906101000a900460ff168092919060010191906101000a81548160ff021916908360ff160217905550506001600d8281548110151561122857fe5b906000526020600020906003020160020160003373ffffffffffffffffffffffffffffffffffffffff1673ffffffffffffffffffffffffffffffffffffffff16815260200190815260200160002060006101000a81548160ff021916908315150217905550600454600d8281548110151561129f57fe5b906000526020600020906003020160000160149054906101000a900460ff1660ff161015156113ac576001600d828154811015156112d957fe5b906000526020600020906003020160000160156101000a81548160ff021916908315150217905550600160026000600d8481548110151561131657fe5b906000526020600020906003020160000160009054906101000a900473ffffffffffffffffffffffffffffffffffffffff1673ffffffffffffffffffffffffffffffffffffffff1673ffffffffffffffffffffffffffffffffffffffff16815260200190815260200160002060006101000a81548160ff0219169083151502179055506003600081548092919060010191905055505b600d818154811015156113bb57fe5b906000526020600020906003020160000160149054906101000a900460ff1660ff163373ffffffffffffffffffffffffffffffffffffffff16827f086be46c97ea0309c84dc9d1e23a6e2ba7a40888557f1cc4d53de455438a41f3600d8581548110151561142557fe5b906000526020600020906003020160000160159054906101000a900460ff16604051808215151515815260200191505060405180910390a450565b60018111151561146f57600080fd5b600260003373ffffffffffffffffffffffffffffffffffffffff1673ffffffffffffffffffffffffffffffffffffffff16815260200190815260200160002060009054906101000a900460ff1615156114c757600080fd5b6009608060405190810160405280838152602001600160ff1681526020016000151581526020013373ffffffffffffffffffffffffffffffffffffffff16815250908060018154018082558091505090600182039060005260206000209060030201600090919290919091506000820151816000015560208201518160010160006101000a81548160ff021916908360ff16021790555060408201518160010160016101000a81548160ff02191690831515021790555060608201518160010160026101000a81548173ffffffffffffffffffffffffffffffffffffffff021916908373ffffffffffffffffffffffffffffffffffffffff160217905550505050600160096001600980549050038154811015156115e157fe5b906000526020600020906003020160020160003373ffffffffffffffffffffffffffffffffffffffff1673ffffffffffffffffffffffffffffffffffffffff16815260200190815260200160002060006101000a81548160ff0219169083151502179055506001600980549050033373ffffffffffffffffffffffffffffffffffffffff167f028c83789a3daeb2e55a2dfc6cff80924a14b840173e5da0d586cb849f7b1b4d836040518082815260200191505060405180910390a350565b6005818154811015156116af57fe5b90600052602060002090600402016000915090508060000160009054906101000a900473ffffffffffffffffffffffffffffffffffffffff16908060010154908060020160009054906101000a900460ff16908060020160019054906101000a900460ff16908060020160029054906101000a900473ffffffffffffffffffffffffffffffffffffffff16905085565b600d8181548110151561174e57fe5b90600052602060002090600302016000915090508060000160009054906101000a900473ffffffffffffffffffffffffffffffffffffffff16908060000160149054906101000a900460ff16908060000160159054906101000a900460ff16908060010160009054906101000a900473ffffffffffffffffffffffffffffffffffffffff16905084565b60045481565b600260003373ffffffffffffffffffffffffffffffffffffffff1673ffffffffffffffffffffffffffffffffffffffff16815260200190815260200160002060009054906101000a900460ff16151561183657600080fd5b600660000160019054906101000a900460ff161580156118a35750600660010160003373ffffffffffffffffffffffffffffffffffffffff1673ffffffffffffffffffffffffffffffffffffffff16815260200190815260200160002060009054906101000a900460ff16155b15156118ae57600080fd5b6001600660010160003373ffffffffffffffffffffffffffffffffffffffff1673ffffffffffffffffffffffffffffffffffffffff16815260200190815260200160002060006101000a81548160ff0219169083151502179055506006600001600081819054906101000a900460ff168092919060010191906101000a81548160ff021916908360ff16021790555050600454600660000160009054906101000a900460ff1660ff16101515611a1a576000809054906101000a900473ffffffffffffffffffffffffffffffffffffffff1673ffffffffffffffffffffffffffffffffffffffff16637d64bcb46040518163ffffffff167c0100000000000000000000000000000000000000000000000000000000028152600401600060405180830381600087803b1580156119e357600080fd5b505af11580156119f7573d6000803e3d6000fd5b505050506001600660000160016101000a81548160ff0219169083151502179055505b600660000160009054906101000a900460ff1660ff163373ffffffffffffffffffffffffffffffffffffffff167fe3b4331734dc759abe95845f42bc2f97b32a9591677e430ca6884672172380bb600660000160019054906101000a900460ff16604051808215151515815260200191505060405180910390a3565b600260003373ffffffffffffffffffffffffffffffffffffffff1673ffffffffffffffffffffffffffffffffffffffff16815260200190815260200160002060009054906101000a900460ff161515611aee57600080fd5b600560a0604051908101604052808473ffffffffffffffffffffffffffffffffffffffff168152602001838152602001600160ff1681526020016000151581526020013373ffffffffffffffffffffffffffffffffffffffff168152509080600181540180825580915050906001820390600052602060002090600402016000909192909190915060008201518160000160006101000a81548173ffffffffffffffffffffffffffffffffffffffff021916908373ffffffffffffffffffffffffffffffffffffffff1602179055506020820151816001015560408201518160020160006101000a81548160ff021916908360ff16021790555060608201518160020160016101000a81548160ff02191690831515021790555060808201518160020160026101000a81548173ffffffffffffffffffffffffffffffffffffffff021916908373ffffffffffffffffffffffffffffffffffffffff16021790555050505060016005600160058054905003815481101515611c6b57fe5b906000526020600020906004020160030160003373ffffffffffffffffffffffffffffffffffffffff1673ffffffffffffffffffffffffffffffffffffffff16815260200190815260200160002060006101000a81548160ff0219169083151502179055508173ffffffffffffffffffffffffffffffffffffffff166001600580549050033373ffffffffffffffffffffffffffffffffffffffff167f48289ed1d23fcee348663b306df4440e206ff1012aba01ddb388cdb5406617a2846040518082815260200191505060405180910390a45050565b600260003373ffffffffffffffffffffffffffffffffffffffff1673ffffffffffffffffffffffffffffffffffffffff16815260200190815260200160002060009054906101000a900460ff161515611d9a57600080fd5b600a608060405190810160405280838152602001600160ff1681526020016000151581526020013373ffffffffffffffffffffffffffffffffffffffff16815250908060018154018082558091505090600182039060005260206000209060030201600090919290919091506000820151816000015560208201518160010160006101000a81548160ff021916908360ff16021790555060408201518160010160016101000a81548160ff02191690831515021790555060608201518160010160026101000a81548173ffffffffffffffffffffffffffffffffffffffff021916908373ffffffffffffffffffffffffffffffffffffffff1602179055505050506001600a6001600a8054905003815481101515611eb457fe5b906000526020600020906003020160020160003373ffffffffffffffffffffffffffffffffffffffff1673ffffffffffffffffffffffffffffffffffffffff16815260200190815260200160002060006101000a81548160ff0219169083151502179055506001600a80549050033373ffffffffffffffffffffffffffffffffffffffff167f885ef6e03a1576953add2129ba3b61abeba587631aea69bf0d76a2449388b85e836040518082815260200191505060405180910390a350565b600160009054906101000a900473ffffffffffffffffffffffffffffffffffffffff1681565b600260003373ffffffffffffffffffffffffffffffffffffffff1673ffffffffffffffffffffffffffffffffffffffff16815260200190815260200160002060009054906101000a900460ff161515611ff157600080fd5b600e6080604051908101604052808373ffffffffffffffffffffffffffffffffffffffff168152602001600160ff1681526020016000151581526020013373ffffffffffffffffffffffffffffffffffffffff168152509080600181540180825580915050906001820390600052602060002090600302016000909192909190915060008201518160000160006101000a81548173ffffffffffffffffffffffffffffffffffffffff021916908373ffffffffffffffffffffffffffffffffffffffff16021790555060208201518160000160146101000a81548160ff021916908360ff16021790555060408201518160000160156101000a81548160ff02191690831515021790555060608201518160010160006101000a81548173ffffffffffffffffffffffffffffffffffffffff021916908373ffffffffffffffffffffffffffffffffffffffff1602179055505050506001600e6001600e805490500381548110151561215e57fe5b906000526020600020906003020160020160003373ffffffffffffffffffffffffffffffffffffffff1673ffffffffffffffffffffffffffffffffffffffff16815260200190815260200160002060006101000a81548160ff0219169083151502179055506001600e80549050033373ffffffffffffffffffffffffffffffffffffffff167f25a1f5c0ff11edb8ac40e6b7c3f4091f661effcb1a87aa0b03924bb05e87a95983604051808273ffffffffffffffffffffffffffffffffffffffff1673ffffffffffffffffffffffffffffffffffffffff16815260200191505060405180910390a350565b600260003373ffffffffffffffffffffffffffffffffffffffff1673ffffffffffffffffffffffffffffffffffffffff16815260200190815260200160002060009054906101000a900460ff1615156122a157600080fd5b600454600160035403101580156122ba57506002600354115b15156122c557600080fd5b600e818154811015156122d457fe5b906000526020600020906003020160020160003373ffffffffffffffffffffffffffffffffffffffff1673ffffffffffffffffffffffffffffffffffffffff16815260200190815260200160002060009054906101000a900460ff161580156123685750600e8181548110151561234757fe5b906000526020600020906003020160000160159054906101000a900460ff16155b151561237357600080fd5b600e8181548110151561238257fe5b9060005260206000209060030201600001601481819054906101000a900460ff168092919060010191906101000a81548160ff021916908360ff160217905550506001600e828154811015156123d457fe5b906000526020600020906003020160020160003373ffffffffffffffffffffffffffffffffffffffff1673ffffffffffffffffffffffffffffffffffffffff16815260200190815260200160002060006101000a81548160ff021916908315150217905550600454600e8281548110151561244b57fe5b906000526020600020906003020160000160149054906101000a900460ff1660ff16101515612559576001600e8281548110151561248557fe5b906000526020600020906003020160000160156101000a81548160ff021916908315150217905550600160026000600e848154811015156124c257fe5b906000526020600020906003020160000160009054906101000a900473ffffffffffffffffffffffffffffffffffffffff1673ffffffffffffffffffffffffffffffffffffffff1673ffffffffffffffffffffffffffffffffffffffff16815260200190815260200160002060006101000a81548160ff021916908315150217905550600360008154809291906001900391905055505b600e8181548110151561256857fe5b906000526020600020906003020160000160149054906101000a900460ff1660ff163373ffffffffffffffffffffffffffffffffffffffff16827f9fef8fdf353c817aa0268a9f765b20036f882da6c164c839afd48a0a46a8a5cd600e858154811015156125d257fe5b906000526020600020906003020160000160159054906101000a900460ff16604051808215151515815260200191505060405180910390a450565b600a8181548110151561261c57fe5b90600052602060002090600302016000915090508060000154908060010160009054906101000a900460ff16908060010160019054906101000a900460ff16908060010160029054906101000a900473ffffffffffffffffffffffffffffffffffffffff16905084565b600260003373ffffffffffffffffffffffffffffffffffffffff1673ffffffffffffffffffffffffffffffffffffffff16815260200190815260200160002060009054906101000a900460ff1615156126de57600080fd5b600d6080604051908101604052808373ffffffffffffffffffffffffffffffffffffffff168152602001600160ff1681526020016000151581526020013373ffffffffffffffffffffffffffffffffffffffff168152509080600181540180825580915050906001820390600052602060002090600302016000909192909190915060008201518160000160006101000a81548173ffffffffffffffffffffffffffffffffffffffff021916908373ffffffffffffffffffffffffffffffffffffffff16021790555060208201518160000160146101000a81548160ff021916908360ff16021790555060408201518160000160156101000a81548160ff02191690831515021790555060608201518160010160006101000a81548173ffffffffffffffffffffffffffffffffffffffff021916908373ffffffffffffffffffffffffffffffffffffffff1602179055505050506001600d6001600d805490500381548110151561284b57fe5b906000526020600020906003020160020160003373ffffffffffffffffffffffffffffffffffffffff1673ffffffffffffffffffffffffffffffffffffffff16815260200190815260200160002060006101000a81548160ff0219169083151502179055506001600d80549050033373ffffffffffffffffffffffffffffffffffffffff167f6e307a8d087b2d298eb74f9215c330670dc42eacafa397334a550eb62cedaa4983604051808273ffffffffffffffffffffffffffffffffffffffff1673ffffffffffffffffffffffffffffffffffffffff16815260200191505060405180910390a350565b60035481565b60068060000160009054906101000a900460ff16908060000160019054906101000a900460ff16905082565b600e8181548110151561297757fe5b90600052602060002090600302016000915090508060000160009054906101000a900473ffffffffffffffffffffffffffffffffffffffff16908060000160149054906101000a900460ff16908060000160159054906101000a900460ff16908060010160009054906101000a900473ffffffffffffffffffffffffffffffffffffffff16905084565b600260003373ffffffffffffffffffffffffffffffffffffffff1673ffffffffffffffffffffffffffffffffffffffff16815260200190815260200160002060009054906101000a900460ff161515612a5957600080fd5b6000600b60000160009054906101000a900460ff1660ff161415612be057606060405190810160405280600160ff1681526020016000151581526020013373ffffffffffffffffffffffffffffffffffffffff16815250600b60008201518160000160006101000a81548160ff021916908360ff16021790555060208201518160000160016101000a81548160ff02191690831515021790555060408201518160000160026101000a81548173ffffffffffffffffffffffffffffffffffffffff021916908373ffffffffffffffffffffffffffffffffffffffff1602179055509050506001600b60010160003373ffffffffffffffffffffffffffffffffffffffff1673ffffffffffffffffffffffffffffffffffffffff16815260200190815260200160002060006101000a81548160ff0219169083151502179055503373ffffffffffffffffffffffffffffffffffffffff167f1f541b42df3b9d2cadcb6dd0ed72161adc6bad11a1bc8ec95d3f547ce97764a760405160405180910390a2612e40565b600b60010160003373ffffffffffffffffffffffffffffffffffffffff1673ffffffffffffffffffffffffffffffffffffffff16815260200190815260200160002060009054906101000a900460ff16158015612c4d5750600b60000160019054906101000a900460ff16155b1515612c5857600080fd5b600b600001600081819054906101000a900460ff168092919060010191906101000a81548160ff021916908360ff160217905550506001600b60010160003373ffffffffffffffffffffffffffffffffffffffff1673ffffffffffffffffffffffffffffffffffffffff16815260200190815260200160002060006101000a81548160ff021916908315150217905550600454600b60000160009054906101000a900460ff1660ff16101515612e3f576001600b60000160016101000a81548160ff021916908315150217905550600b60000160009054906101000a900460ff1660ff163373ffffffffffffffffffffffffffffffffffffffff167fcbbf6ef9a8dbdbf3ed6c5d0809f69e6a6370c4110c911897f0e0cb7b26edd83b600b60000160019054906101000a900460ff16604051808215151515815260200191505060405180910390a3600160009054906101000a900473ffffffffffffffffffffffffffffffffffffffff1673ffffffffffffffffffffffffffffffffffffffff1663092a5cce6040518163ffffffff167c0100000000000000000000000000000000000000000000000000000000028152600401600060405180830381600087803b158015612e2657600080fd5b505af1158015612e3a573d6000803e3d6000fd5b505050505b5b565b600981815481101515612e5157fe5b90600052602060002090600302016000915090508060000154908060010160009054906101000a900460ff16908060010160019054906101000a900460ff16908060010160029054906101000a900473ffffffffffffffffffffffffffffffffffffffff16905084565b600260003373ffffffffffffffffffffffffffffffffffffffff1673ffffffffffffffffffffffffffffffffffffffff16815260200190815260200160002060009054906101000a900460ff161515612f1357600080fd5b600354600982815481101515612f2557fe5b90600052602060002090600302016000015411151515612f4457600080fd5b600981815481101515612f5357fe5b906000526020600020906003020160020160003373ffffffffffffffffffffffffffffffffffffffff1673ffffffffffffffffffffffffffffffffffffffff16815260200190815260200160002060009054906101000a900460ff16158015612fe75750600981815481101515612fc657fe5b906000526020600020906003020160010160019054906101000a900460ff16155b1515612ff257600080fd5b60098181548110151561300157fe5b9060005260206000209060030201600101600081819054906101000a900460ff168092919060010191906101000a81548160ff021916908360ff16021790555050600160098281548110151561305357fe5b906000526020600020906003020160020160003373ffffffffffffffffffffffffffffffffffffffff1673ffffffffffffffffffffffffffffffffffffffff16815260200190815260200160002060006101000a81548160ff0219169083151502179055506004546009828154811015156130ca57fe5b906000526020600020906003020160010160009054906101000a900460ff1660ff1610151561315457600160098281548110151561310457fe5b906000526020600020906003020160010160016101000a81548160ff02191690831515021790555060098181548110151561313b57fe5b9060005260206000209060030201600001546004819055505b60098181548110151561316357fe5b906000526020600020906003020160010160009054906101000a900460ff1660ff16813373ffffffffffffffffffffffffffffffffffffffff167fe6198210b409388c358e775e3162b0bcf189d0f1de4cacff2db188519fafa16b6009858154811015156131cd57fe5b906000526020600020906003020160010160019054906101000a900460ff16604051808215151515815260200191505060405180910390a450565b6000809054906101000a900473ffffffffffffffffffffffffffffffffffffffff16815600a165627a7a72305820d8337c185d3eec314ca71ada0e7d5b1542818f2eb36c0342202fd28d668222840029",
  "source": "pragma solidity ^0.4.22;\n\ncontract TokenContract{\n    function mint(address _to, uint256 _amount) public;\n    function finishMinting () public;\n    function setupMultisig (address _address) public;\n}\n\ncontract CrowdsaleContract{\n    function setNewRate (uint _newRate) public;\n    function destroyContract () public;\n    function setupMultisig (address _address) public;\n}\n\ncontract GangMultisig {\n    \n  TokenContract public token;\n  CrowdsaleContract public crowdsale;\n    \n  constructor (address _token, address _crowdsale, uint8 _needApprovesToConfirm, address[] _owners) public{\n  \trequire (_needApprovesToConfirm > 1 && _needApprovesToConfirm >= _owners.length);\n  \n\t  token = TokenContract(_token);\n\n\t  crowdsale = CrowdsaleContract(_crowdsale);\n\n\t  addInitialOwners(_owners);\n\n\t  needApprovesToConfirm = _needApprovesToConfirm;\n\n\t  token.setupMultisig(address(this));\n\t  crowdsale.setupMultisig(address(this));\n    \n\t  ownersCount = _owners.length;\n  }\n\n  function addInitialOwners (address[] _owners) internal {\n  \tfor (uint i = 0; i < _owners.length; i++){\n  \t  owners[_owners[i]] = true;\n  \t}\n  }\n\n  mapping (address => bool) owners;\n\n  uint public ownersCount;\n\n  uint public needApprovesToConfirm;\n\n  //Start Minting Tokens\n  struct SetNewMint {\n    address spender;\n    uint value;\n    uint8 confirms;\n    bool isExecute;\n    address initiator;\n    mapping (address => bool) confirmators;\n  }\n\n  SetNewMint[] public setNewMint;\n\n  event NewMintRequestSetup(address indexed initiator, uint indexed index, address indexed spender, uint value);\n  event NewMintRequestUpdate(address indexed owner, uint indexed index, uint8 indexed confirms, bool isExecute);\n\n  function setNewMintRequest (address _spender, uint _value) public {\n    require (owners[msg.sender]);\n\n    setNewMint.push(SetNewMint(_spender, _value, 1, false, msg.sender));\n    setNewMint[setNewMint.length-1].confirmators[msg.sender] = true;\n\n    emit NewMintRequestSetup(msg.sender, setNewMint.length-1, _spender, _value);\n  }\n\n  function approveNewMintRequest (uint index) public {\n    require (owners[msg.sender]);\n\n    require (!setNewMint[index].confirmators[msg.sender] && !setNewMint[index].isExecute);\n    \n    setNewMint[index].confirms++;\n    setNewMint[index].confirmators[msg.sender] = true;\n\n    if(setNewMint[index].confirms >= needApprovesToConfirm){\n      setNewMint[index].isExecute = true;\n\n      token.mint(setNewMint[index].spender, setNewMint[index].value); \n    }\n    emit NewMintRequestUpdate(msg.sender, index, setNewMint[index].confirms, setNewMint[index].isExecute);\n  }\n\n  //Finish Minting Tokens\n\n  //Start finishMinting functions\n\n  struct FinishMintingStruct {\n    uint8 confirms;\n    bool isExecute;\n    mapping (address => bool) confirmators;\n  }\n\n  FinishMintingStruct public finishMintingStruct;\n\n  event FinishMintingRequestUpdate(address indexed owner, uint8 indexed confirms, bool isExecute);\n  event MintFinished();\n\n  bool public mintingFinished = false;\n\n  function finishMinting () public {\n    require (owners[msg.sender]);\n    require (!finishMintingStruct.isExecute && !finishMintingStruct.confirmators[msg.sender]);\n    \n    finishMintingStruct.confirmators[msg.sender] = true;\n\n    finishMintingStruct.confirms++;\n\n    if(finishMintingStruct.confirms >= needApprovesToConfirm){\n      token.finishMinting();\n      finishMintingStruct.isExecute = true;\n    }\n\n    emit FinishMintingRequestUpdate(msg.sender, finishMintingStruct.confirms, finishMintingStruct.isExecute);\n  }\n\n  //Finish finishMinting functions\n\n  //Start change approves count\n  struct SetNewApproves {\n    uint count;\n    uint8 confirms;\n    bool isExecute;\n    address initiator;\n    mapping (address => bool) confirmators;\n  }\n\n  SetNewApproves[] public setNewApproves;\n\n  event NewNeedApprovesToConfirmSetup(address indexed initiator, uint indexed index, uint count);\n  event NewNeedApprovesToConfirmUpdate(address indexed owner, uint indexed index, uint8 indexed confirms, bool isExecute);\n\n  function setNewOwnersCountToApprove (uint _count) public {\n  \trequire (_count > 1);\n    require (owners[msg.sender]);\n\n    setNewApproves.push(SetNewApproves(_count, 1, false, msg.sender));\n    setNewApproves[setNewApproves.length-1].confirmators[msg.sender] = true;\n\n    emit NewNeedApprovesToConfirmSetup(msg.sender, setNewApproves.length-1, _count);\n  }\n\n  function approveNewOwnersCount (uint index) public {\n    require (owners[msg.sender]);\n    require (setNewApproves[index].count <= ownersCount);\n    \n    require (!setNewApproves[index].confirmators[msg.sender] && !setNewApproves[index].isExecute);\n    \n    setNewApproves[index].confirms++;\n    setNewApproves[index].confirmators[msg.sender] = true;\n\n    if(setNewApproves[index].confirms >= needApprovesToConfirm){\n      setNewApproves[index].isExecute = true;\n\n      needApprovesToConfirm = setNewApproves[index].count;   \n    }\n    emit NewNeedApprovesToConfirmUpdate(msg.sender, index, setNewApproves[index].confirms, setNewApproves[index].isExecute);\n  }  \n  //Finish change approves count\n\n  //Set rate multisig access\n  struct SetRateConfirmation {\n    uint rate;\n    uint8 confirms;\n    bool isExecute;\n    address initiator;\n    mapping (address => bool) confirmators;\n  }\n\n  SetRateConfirmation[] public setRateConfirmation;\n\n  event SetNewRateEvent(address indexed initiator, uint indexed index, uint rate);\n  event ApproveSetNewRate(uint indexed index, address indexed owner, uint8 indexed confirms, bool isExecute);\n\n  function setRateInitial (uint256 _rateInWei) public{\n    require (owners[msg.sender]);\n    setRateConfirmation.push(SetRateConfirmation(_rateInWei, 1, false, msg.sender));\n    setRateConfirmation[setRateConfirmation.length-1].confirmators[msg.sender] = true;\n    \n    emit SetNewRateEvent(msg.sender, setRateConfirmation.length-1, _rateInWei);\n  }\n\n  function confirmSetRate (uint index) public {\n    require (owners[msg.sender]);\n    require (!setRateConfirmation[index].confirmators[msg.sender]);\n\n    setRateConfirmation[index].confirms ++;\n    setRateConfirmation[index].confirmators[msg.sender] = true;\n\n    if(setRateConfirmation[index].confirms >= needApprovesToConfirm){\n      crowdsale.setNewRate(setRateConfirmation[index].rate);\n      setRateConfirmation[index].isExecute = true;\n    }\n\n    emit ApproveSetNewRate(index, msg.sender, setRateConfirmation[index].confirms, setRateConfirmation[index].isExecute);\n  }\n  // End set rate multisig access\n  \n  // Start DestroyCrowdsaleContract\n  event DestroyContractInitial(address indexed initiator);\n  event ApproveDestroyContract(address indexed owner, uint8 indexed confirms, bool isExecute);\n\n  struct DestroyContract {\n    uint8 confirms;\n    bool isExecute;\n    address initiator;\n    mapping (address => bool) confirmators;\n  }\n\n  DestroyContract public destroyContract;\n\n  function destroyContractRequest () public {\n    require (owners[msg.sender]);\n    if(destroyContract.confirms == 0){\n      destroyContract = (DestroyContract(1, false, msg.sender));\n      destroyContract.confirmators[msg.sender] = true;\n    \n      emit DestroyContractInitial(msg.sender);\n    }else{\n      require (!destroyContract.confirmators[msg.sender] && !destroyContract.isExecute);\n      destroyContract.confirms ++;\n      destroyContract.confirmators[msg.sender] = true;\n\n      if(destroyContract.confirms >= needApprovesToConfirm){\n        destroyContract.isExecute = true;\n        emit ApproveDestroyContract(msg.sender, destroyContract.confirms, destroyContract.isExecute);\n        \n        crowdsale.destroyContract();\n      }\n    }\n  }\n  // End DestroyCrowdsaleContract \n\n  //Start add new owner\n  struct NewOwner {\n    address newOwner;\n    uint8 confirms;\n    bool isExecute;\n    address initiator;\n    mapping (address => bool) confirmators;\n  }\n\n  NewOwner[] public newOwners;\n\n  event NewOwnerRequestSetup(address indexed initiator, uint indexed index, address newOwner);\n  event NewOwnerRequestUpdate(uint indexed index, address indexed owner, uint8 indexed confirms, bool isExecute);\n\n  function setNewOwnerRequest (address _newOwner) public {\n    require (owners[msg.sender]);\n\n    newOwners.push(NewOwner(_newOwner, 1, false, msg.sender));\n    newOwners[newOwners.length-1].confirmators[msg.sender] = true;\n\n    emit NewOwnerRequestSetup(msg.sender, newOwners.length-1, _newOwner);\n  }\n\n  function approveNewOwnerRequest (uint index) public {\n    require (owners[msg.sender]);\n\n    require (!newOwners[index].confirmators[msg.sender] && !newOwners[index].isExecute);\n    \n    newOwners[index].confirms++;\n    newOwners[index].confirmators[msg.sender] = true;\n\n    if(newOwners[index].confirms >= needApprovesToConfirm){\n      newOwners[index].isExecute = true;\n\n      owners[newOwners[index].newOwner] = true;\n      ownersCount++;\n    }\n    emit NewOwnerRequestUpdate(index, msg.sender, newOwners[index].confirms, newOwners[index].isExecute);\n  }\n  //Finish add new owner\n\n  //Start remove owner\n  NewOwner[] public removeOwners;\n\n  event RemoveOwnerRequestSetup(address indexed initiator, uint indexed index, address newOwner);\n  event RemoveOwnerRequestUpdate(uint indexed index, address indexed owner, uint8 indexed confirms, bool isExecute);\n\n  function removeNewOwnerRequest (address _removeOwner) public {\n    require (owners[msg.sender]);\n\n    removeOwners.push(NewOwner(_removeOwner, 1, false, msg.sender));\n    removeOwners[removeOwners.length-1].confirmators[msg.sender] = true;\n\n    emit RemoveOwnerRequestSetup(msg.sender, removeOwners.length-1, _removeOwner);\n  }\n\n  function approveRemoveOwnerRequest (uint index) public {\n    require (owners[msg.sender]);\n\n    require (ownersCount - 1 >= needApprovesToConfirm && ownersCount > 2);\n    require (!removeOwners[index].confirmators[msg.sender] && !removeOwners[index].isExecute);\n    \n    removeOwners[index].confirms++;\n    removeOwners[index].confirmators[msg.sender] = true;\n\n    if(removeOwners[index].confirms >= needApprovesToConfirm){\n      removeOwners[index].isExecute = true;\n\n      owners[removeOwners[index].newOwner] = true;\n      ownersCount--;\n    }\n    emit RemoveOwnerRequestUpdate(index, msg.sender, removeOwners[index].confirms, removeOwners[index].isExecute);\n  }\n  //Finish remove owner\n}",
  "sourcePath": "/home/romuch/Desktop/GangICOTruffle/contracts/gangMultisigContract.sol",
  "compiler": {
    "name": "solc",
    "version": "0.4.22+commit.4cb486ee.Emscripten.clang"
  },
  "schemaVersion": "1.0.1",
  "updatedAt": "2018-05-04T12:23:29.665Z"
}